{
  "contractName": "Studentmgmt",
  "abi": [
    {
      "anonymous": false,
      "inputs": [
        {
          "indexed": false,
          "internalType": "address",
          "name": "addr",
          "type": "address"
        }
      ],
      "name": "StudentDeleted",
      "type": "event"
    },
    {
      "anonymous": false,
      "inputs": [
        {
          "indexed": true,
          "internalType": "address",
          "name": "studentAddr",
          "type": "address"
        },
        {
          "indexed": false,
          "internalType": "string",
          "name": "name",
          "type": "string"
        },
        {
          "indexed": false,
          "internalType": "uint256",
          "name": "dateofbirth",
          "type": "uint256"
        },
        {
          "indexed": false,
          "internalType": "string",
          "name": "email",
          "type": "string"
        },
        {
          "indexed": false,
          "internalType": "string",
          "name": "addressline1",
          "type": "string"
        },
        {
          "indexed": false,
          "internalType": "string",
          "name": "addressline2",
          "type": "string"
        },
        {
          "indexed": false,
          "internalType": "string",
          "name": "state",
          "type": "string"
        },
        {
          "indexed": false,
          "internalType": "string",
          "name": "city",
          "type": "string"
        },
        {
          "indexed": false,
          "internalType": "uint256",
          "name": "zip",
          "type": "uint256"
        }
      ],
      "name": "StudentDetailsUpdated",
      "type": "event"
    },
    {
      "inputs": [
        {
          "internalType": "string",
          "name": "_name",
          "type": "string"
        },
        {
          "internalType": "uint256",
          "name": "_dateofbirth",
          "type": "uint256"
        },
        {
          "internalType": "string",
          "name": "_email",
          "type": "string"
        },
        {
          "internalType": "string",
          "name": "_addressline1",
          "type": "string"
        },
        {
          "internalType": "string",
          "name": "_addressline2",
          "type": "string"
        },
        {
          "internalType": "string",
          "name": "_state",
          "type": "string"
        },
        {
          "internalType": "string",
          "name": "_city",
          "type": "string"
        },
        {
          "internalType": "uint256",
          "name": "_zip",
          "type": "uint256"
        },
        {
          "internalType": "address",
          "name": "_addr",
          "type": "address"
        }
      ],
      "name": "savePersonalInfo",
      "outputs": [],
      "stateMutability": "nonpayable",
      "type": "function"
    },
    {
      "inputs": [
        {
          "internalType": "address",
          "name": "studentAddr",
          "type": "address"
        }
      ],
      "name": "isStudentRegistered",
      "outputs": [
        {
          "internalType": "bool",
          "name": "",
          "type": "bool"
        }
      ],
      "stateMutability": "view",
      "type": "function"
    },
    {
      "inputs": [
        {
          "internalType": "address",
          "name": "studentAddr",
          "type": "address"
        }
      ],
      "name": "deleteStudent",
      "outputs": [],
      "stateMutability": "nonpayable",
      "type": "function"
    },
    {
      "inputs": [
        {
          "internalType": "address",
          "name": "studentAddr",
          "type": "address"
        },
        {
          "internalType": "string",
          "name": "name",
          "type": "string"
        },
        {
          "internalType": "uint256",
          "name": "dateofbirth",
          "type": "uint256"
        },
        {
          "internalType": "string",
          "name": "email",
          "type": "string"
        },
        {
          "internalType": "string",
          "name": "addressline1",
          "type": "string"
        },
        {
          "internalType": "string",
          "name": "addressline2",
          "type": "string"
        },
        {
          "internalType": "string",
          "name": "state",
          "type": "string"
        },
        {
          "internalType": "string",
          "name": "city",
          "type": "string"
        },
        {
          "internalType": "uint256",
          "name": "zip",
          "type": "uint256"
        }
      ],
      "name": "updateStudentDetails",
      "outputs": [],
      "stateMutability": "nonpayable",
      "type": "function"
    }
  ],
  "bytecode": "0x608060405234801561001057600080fd5b5061133b806100206000396000f3fe608060405234801561001057600080fd5b506004361061004c5760003560e01c80630385712114610051578063730bcc5d1461006d57806396a0677514610089578063b8b2e42c146100a5575b600080fd5b61006b60048036038101906100669190610aa8565b6100d5565b005b61008760048036038101906100829190610c1a565b610287565b005b6100a3600480360381019061009e9190610c47565b6104aa565b005b6100bf60048036038101906100ba9190610c1a565b610805565b6040516100cc9190610dd4565b60405180910390f35b60006040518061014001604052808b81526020018a81526020018981526020018881526020018781526020018681526020018581526020018481526020018373ffffffffffffffffffffffffffffffffffffffff168152602001600115158152509050806000803373ffffffffffffffffffffffffffffffffffffffff1673ffffffffffffffffffffffffffffffffffffffff168152602001908152602001600020600082015181600001908161018c9190611006565b506020820151816001015560408201518160020190816101ac9190611006565b5060608201518160030190816101c29190611006565b5060808201518160040190816101d89190611006565b5060a08201518160050190816101ee9190611006565b5060c08201518160060190816102049190611006565b5060e082015181600701556101008201518160080160006101000a81548173ffffffffffffffffffffffffffffffffffffffff021916908373ffffffffffffffffffffffffffffffffffffffff1602179055506101208201518160080160146101000a81548160ff02191690831515021790555090505050505050505050505050565b600073ffffffffffffffffffffffffffffffffffffffff168173ffffffffffffffffffffffffffffffffffffffff16036102f6576040517f08c379a00000000000000000000000000000000000000000000000000000000081526004016102ed90611135565b60405180910390fd5b6000808273ffffffffffffffffffffffffffffffffffffffff1673ffffffffffffffffffffffffffffffffffffffff16815260200190815260200160002060080160149054906101000a900460ff16610384576040517f08c379a000000000000000000000000000000000000000000000000000000000815260040161037b906111a1565b60405180910390fd5b6000808273ffffffffffffffffffffffffffffffffffffffff1673ffffffffffffffffffffffffffffffffffffffff168152602001908152602001600020600080820160006103d3919061085d565b60018201600090556002820160006103eb919061085d565b6003820160006103fb919061085d565b60048201600061040b919061085d565b60058201600061041b919061085d565b60068201600061042b919061085d565b60078201600090556008820160006101000a81549073ffffffffffffffffffffffffffffffffffffffff02191690556008820160146101000a81549060ff021916905550507f8b92780c414b9f0cc7e66f9ea0f7eb6a8cf72ac0571cd2445169f4c35c3741838160405161049f91906111d0565b60405180910390a150565b6000808a73ffffffffffffffffffffffffffffffffffffffff1673ffffffffffffffffffffffffffffffffffffffff16815260200190815260200160002060080160149054906101000a900460ff16610538576040517f08c379a000000000000000000000000000000000000000000000000000000000815260040161052f906111a1565b60405180910390fd5b876000808b73ffffffffffffffffffffffffffffffffffffffff1673ffffffffffffffffffffffffffffffffffffffff16815260200190815260200160002060000190816105869190611006565b50866000808b73ffffffffffffffffffffffffffffffffffffffff1673ffffffffffffffffffffffffffffffffffffffff16815260200190815260200160002060010181905550856000808b73ffffffffffffffffffffffffffffffffffffffff1673ffffffffffffffffffffffffffffffffffffffff168152602001908152602001600020600201908161061b9190611006565b50846000808b73ffffffffffffffffffffffffffffffffffffffff1673ffffffffffffffffffffffffffffffffffffffff168152602001908152602001600020600301908161066a9190611006565b50836000808b73ffffffffffffffffffffffffffffffffffffffff1673ffffffffffffffffffffffffffffffffffffffff16815260200190815260200160002060040190816106b99190611006565b50826000808b73ffffffffffffffffffffffffffffffffffffffff1673ffffffffffffffffffffffffffffffffffffffff16815260200190815260200160002060050190816107089190611006565b50816000808b73ffffffffffffffffffffffffffffffffffffffff1673ffffffffffffffffffffffffffffffffffffffff16815260200190815260200160002060060190816107579190611006565b50806000808b73ffffffffffffffffffffffffffffffffffffffff1673ffffffffffffffffffffffffffffffffffffffff168152602001908152602001600020600701819055508873ffffffffffffffffffffffffffffffffffffffff167f5d3a6c26938d5f1d224c984c7fa3e1944f0a5de3198dc437d2149abeb8511b4589898989898989896040516107f298979695949392919061125d565b60405180910390a2505050505050505050565b60008060008373ffffffffffffffffffffffffffffffffffffffff1673ffffffffffffffffffffffffffffffffffffffff16815260200190815260200160002060080160149054906101000a900460ff169050919050565b50805461086990610e29565b6000825580601f1061087b575061089a565b601f016020900490600052602060002090810190610899919061089d565b5b50565b5b808211156108b657600081600090555060010161089e565b5090565b6000604051905090565b600080fd5b600080fd5b600080fd5b600080fd5b6000601f19601f8301169050919050565b7f4e487b7100000000000000000000000000000000000000000000000000000000600052604160045260246000fd5b610921826108d8565b810181811067ffffffffffffffff821117156109405761093f6108e9565b5b80604052505050565b60006109536108ba565b905061095f8282610918565b919050565b600067ffffffffffffffff82111561097f5761097e6108e9565b5b610988826108d8565b9050602081019050919050565b82818337600083830152505050565b60006109b76109b284610964565b610949565b9050828152602081018484840111156109d3576109d26108d3565b5b6109de848285610995565b509392505050565b600082601f8301126109fb576109fa6108ce565b5b8135610a0b8482602086016109a4565b91505092915050565b6000819050919050565b610a2781610a14565b8114610a3257600080fd5b50565b600081359050610a4481610a1e565b92915050565b600073ffffffffffffffffffffffffffffffffffffffff82169050919050565b6000610a7582610a4a565b9050919050565b610a8581610a6a565b8114610a9057600080fd5b50565b600081359050610aa281610a7c565b92915050565b60008060008060008060008060006101208a8c031215610acb57610aca6108c4565b5b60008a013567ffffffffffffffff811115610ae957610ae86108c9565b5b610af58c828d016109e6565b9950506020610b068c828d01610a35565b98505060408a013567ffffffffffffffff811115610b2757610b266108c9565b5b610b338c828d016109e6565b97505060608a013567ffffffffffffffff811115610b5457610b536108c9565b5b610b608c828d016109e6565b96505060808a013567ffffffffffffffff811115610b8157610b806108c9565b5b610b8d8c828d016109e6565b95505060a08a013567ffffffffffffffff811115610bae57610bad6108c9565b5b610bba8c828d016109e6565b94505060c08a013567ffffffffffffffff811115610bdb57610bda6108c9565b5b610be78c828d016109e6565b93505060e0610bf88c828d01610a35565b925050610100610c0a8c828d01610a93565b9150509295985092959850929598565b600060208284031215610c3057610c2f6108c4565b5b6000610c3e84828501610a93565b91505092915050565b60008060008060008060008060006101208a8c031215610c6a57610c696108c4565b5b6000610c788c828d01610a93565b99505060208a013567ffffffffffffffff811115610c9957610c986108c9565b5b610ca58c828d016109e6565b9850506040610cb68c828d01610a35565b97505060608a013567ffffffffffffffff811115610cd757610cd66108c9565b5b610ce38c828d016109e6565b96505060808a013567ffffffffffffffff811115610d0457610d036108c9565b5b610d108c828d016109e6565b95505060a08a013567ffffffffffffffff811115610d3157610d306108c9565b5b610d3d8c828d016109e6565b94505060c08a013567ffffffffffffffff811115610d5e57610d5d6108c9565b5b610d6a8c828d016109e6565b93505060e08a013567ffffffffffffffff811115610d8b57610d8a6108c9565b5b610d978c828d016109e6565b925050610100610da98c828d01610a35565b9150509295985092959850929598565b60008115159050919050565b610dce81610db9565b82525050565b6000602082019050610de96000830184610dc5565b92915050565b600081519050919050565b7f4e487b7100000000000000000000000000000000000000000000000000000000600052602260045260246000fd5b60006002820490506001821680610e4157607f821691505b602082108103610e5457610e53610dfa565b5b50919050565b60008190508160005260206000209050919050565b60006020601f8301049050919050565b600082821b905092915050565b600060088302610ebc7fffffffffffffffffffffffffffffffffffffffffffffffffffffffffffffffff82610e7f565b610ec68683610e7f565b95508019841693508086168417925050509392505050565b6000819050919050565b6000610f03610efe610ef984610a14565b610ede565b610a14565b9050919050565b6000819050919050565b610f1d83610ee8565b610f31610f2982610f0a565b848454610e8c565b825550505050565b600090565b610f46610f39565b610f51818484610f14565b505050565b5b81811015610f7557610f6a600082610f3e565b600181019050610f57565b5050565b601f821115610fba57610f8b81610e5a565b610f9484610e6f565b81016020851015610fa3578190505b610fb7610faf85610e6f565b830182610f56565b50505b505050565b600082821c905092915050565b6000610fdd60001984600802610fbf565b1980831691505092915050565b6000610ff68383610fcc565b9150826002028217905092915050565b61100f82610def565b67ffffffffffffffff811115611028576110276108e9565b5b6110328254610e29565b61103d828285610f79565b600060209050601f831160018114611070576000841561105e578287015190505b6110688582610fea565b8655506110d0565b601f19841661107e86610e5a565b60005b828110156110a657848901518255600182019150602085019450602081019050611081565b868310156110c357848901516110bf601f891682610fcc565b8355505b6001600288020188555050505b505050505050565b600082825260208201905092915050565b7f496e76616c696420616464726573730000000000000000000000000000000000600082015250565b600061111f600f836110d8565b915061112a826110e9565b602082019050919050565b6000602082019050818103600083015261114e81611112565b9050919050565b7f53747564656e74206e6f74207265676973746572656400000000000000000000600082015250565b600061118b6016836110d8565b915061119682611155565b602082019050919050565b600060208201905081810360008301526111ba8161117e565b9050919050565b6111ca81610a6a565b82525050565b60006020820190506111e560008301846111c1565b92915050565b60005b838110156112095780820151818401526020810190506111ee565b60008484015250505050565b600061122082610def565b61122a81856110d8565b935061123a8185602086016111eb565b611243816108d8565b840191505092915050565b61125781610a14565b82525050565b6000610100820190508181036000830152611278818b611215565b9050611287602083018a61124e565b81810360408301526112998189611215565b905081810360608301526112ad8188611215565b905081810360808301526112c18187611215565b905081810360a08301526112d58186611215565b905081810360c08301526112e98185611215565b90506112f860e083018461124e565b999850505050505050505056fea26469706673582212208449830b2ebdc7a2d2a55be61207de20e08d9d39b42ce3f40f73f99f9d2016a664736f6c63430008130033",
  "immutableReferences": {},
  "source": "// SPDX-License-Identifier: MIT\npragma solidity ^0.8.0;\n\ncontract Studentmgmt {\n    \n    // define a struct to store personal information of a student\n    struct  Personalinfo {\n        string name;\n        uint256 dateofbirth;\n        string email;\n        string addressline1;\n        string addressline2;\n        string state;\n        string city;\n        uint256 zip;\n        address addr;\n        bool isRegistered;\n    }\n    \n    // define a struct to store credit information of a student\n    struct creditinfo { \n        string latest_qual;\n        mapping (string => mapping(string => string)) credits;\n    }\n    \n    // define a mapping to store personal information of all students\n    mapping(address => Personalinfo) personalInfo;\n\n    // define an event to signal when a student has been deleted\n    event StudentDeleted(address addr);\n\n    // function to save personal information of a student\n    function savePersonalInfo(string memory _name, uint256 _dateofbirth, string memory _email, string memory _addressline1, string memory _addressline2, string memory _state, string memory _city, uint256 _zip, address _addr) public {\n        Personalinfo memory info = Personalinfo(_name, _dateofbirth, _email, _addressline1, _addressline2, _state, _city, _zip, _addr, true);\n        personalInfo[msg.sender] = info;\n    }\n\n    // function to check if a student is registered or not\n    function isStudentRegistered(address studentAddr) public view returns (bool) {\n        return (personalInfo[studentAddr].isRegistered);\n    }\n\n    // function to delete a student\n    function deleteStudent(address studentAddr) public {\n        // check if the student address is valid\n        require(studentAddr != address(0), \"Invalid address\");\n\n        // check if the student exists\n        require(personalInfo[studentAddr].isRegistered, \"Student not registered\");\n\n        // delete the student record\n        delete personalInfo[studentAddr];\n\n        // emit an event to indicate that the student has been deleted\n        emit StudentDeleted(studentAddr);\n    }\n\n    // event to signal when a student's details have been updated\n    event StudentDetailsUpdated(\n        address indexed studentAddr,\n        string name,\n        uint256 dateofbirth,\n        string email,\n        string addressline1,\n        string addressline2,\n        string state,\n        string city,\n        uint256 zip\n    );\n\n    // function to update a student's details\n    function updateStudentDetails(address studentAddr, string memory name, uint256 dateofbirth, string memory email, string memory addressline1, string memory addressline2, string memory state, string memory city, uint256 zip) public {\n        // check if the student exists\n        require(personalInfo[studentAddr].isRegistered, \"Student not registered\");\n\n        // update the student's details\n        personalInfo[studentAddr].name = name;\n        personalInfo[studentAddr].dateofbirth = dateofbirth;\n        personalInfo[studentAddr].email = email;\n        personalInfo[studentAddr].addressline1 = addressline1;\n        personalInfo[studentAddr].addressline2 = addressline2;\n        personalInfo[studentAddr].state = state;\n        personalInfo[studentAddr].city = city;\n        personalInfo[studentAddr].zip = zip;\n\n        // emit an event to indicate that the student's details have been updated\n        emit StudentDetailsUpdated(\n            studentAddr,\n            name,\n            dateofbirth,\n            email,\n            addressline1,\n            addressline2,\n            state,\n            city,\n            zip\n        );\n    }\n\n}\n",
  "sourcePath": "/home/anant/Hackathon_2023/DABC/contracts/Student_mgmt.sol",
  "compiler": {
    "name": "solc",
    "version": "0.8.19+commit.7dd6d404.Emscripten.clang"
  },
  "schemaVersion": "3.4.13",
  "updatedAt": "2023-03-12T04:24:15.067Z",
  "devdoc": {
    "kind": "dev",
    "methods": {},
    "version": 1
  },
  "userdoc": {
    "kind": "user",
    "methods": {},
    "version": 1
  }
}